{
  "contractName": "NID",
  "abi": [
    {
      "constant": true,
      "inputs": [
        {
          "name": "",
          "type": "uint256"
        }
      ],
      "name": "data",
      "outputs": [
        {
          "name": "id",
          "type": "uint256"
        },
        {
          "name": "name",
          "type": "string"
        },
        {
          "name": "addr",
          "type": "string"
        }
      ],
      "payable": false,
      "stateMutability": "view",
      "type": "function",
      "signature": "0xf0ba8440"
    },
    {
      "inputs": [],
      "payable": false,
      "stateMutability": "nonpayable",
      "type": "constructor",
      "signature": "constructor"
    },
    {
      "constant": false,
      "inputs": [
        {
          "name": "_id",
          "type": "uint256"
        },
        {
          "name": "_name",
          "type": "string"
        },
        {
          "name": "_addr",
          "type": "string"
        }
      ],
      "name": "createPerson",
      "outputs": [],
      "payable": false,
      "stateMutability": "nonpayable",
      "type": "function",
      "signature": "0xd4f596f4"
    },
    {
      "constant": false,
      "inputs": [
        {
          "name": "_id",
          "type": "uint256"
        },
        {
          "name": "_name",
          "type": "string"
        },
        {
          "name": "_addr",
          "type": "string"
        }
      ],
      "name": "updatePerson",
      "outputs": [],
      "payable": false,
      "stateMutability": "nonpayable",
      "type": "function",
      "signature": "0x7d2ee59c"
    },
    {
      "constant": true,
      "inputs": [
        {
          "name": "_id",
          "type": "uint256"
        }
      ],
      "name": "viewPerson",
      "outputs": [
        {
          "name": "",
          "type": "string"
        },
        {
          "name": "",
          "type": "string"
        }
      ],
      "payable": false,
      "stateMutability": "view",
      "type": "function",
      "signature": "0xbcdaee4e"
    }
  ],
  "bytecode": "0x608060405234801561001057600080fd5b50336000806101000a81548173ffffffffffffffffffffffffffffffffffffffff021916908373ffffffffffffffffffffffffffffffffffffffff160217905550610de8806100606000396000f3fe608060405260043610610062576000357c0100000000000000000000000000000000000000000000000000000000900463ffffffff1680637d2ee59c14610067578063bcdaee4e146101d0578063d4f596f4146102f0578063f0ba844014610459575b600080fd5b34801561007357600080fd5b506101ce6004803603606081101561008a57600080fd5b8101908080359060200190929190803590602001906401000000008111156100b157600080fd5b8201836020820111156100c357600080fd5b803590602001918460018302840111640100000000831117156100e557600080fd5b91908080601f016020809104026020016040519081016040528093929190818152602001838380828437600081840152601f19601f8201169050808301925050505050505091929192908035906020019064010000000081111561014857600080fd5b82018360208201111561015a57600080fd5b8035906020019184600183028401116401000000008311171561017c57600080fd5b91908080601f016020809104026020016040519081016040528093929190818152602001838380828437600081840152601f19601f820116905080830192505050505050509192919290505050610580565b005b3480156101dc57600080fd5b50610209600480360360208110156101f357600080fd5b8101908080359060200190929190505050610786565b604051808060200180602001838103835285818151815260200191508051906020019080838360005b8381101561024d578082015181840152602081019050610232565b50505050905090810190601f16801561027a5780820380516001836020036101000a031916815260200191505b50838103825284818151815260200191508051906020019080838360005b838110156102b3578082015181840152602081019050610298565b50505050905090810190601f1680156102e05780820380516001836020036101000a031916815260200191505b5094505050505060405180910390f35b3480156102fc57600080fd5b506104576004803603606081101561031357600080fd5b81019080803590602001909291908035906020019064010000000081111561033a57600080fd5b82018360208201111561034c57600080fd5b8035906020019184600183028401116401000000008311171561036e57600080fd5b91908080601f016020809104026020016040519081016040528093929190818152602001838380828437600081840152601f19601f820116905080830192505050505050509192919290803590602001906401000000008111156103d157600080fd5b8201836020820111156103e357600080fd5b8035906020019184600183028401116401000000008311171561040557600080fd5b91908080601f016020809104026020016040519081016040528093929190818152602001838380828437600081840152601f19601f8201169050808301925050505050505091929192905050506109b7565b005b34801561046557600080fd5b506104926004803603602081101561047c57600080fd5b8101908080359060200190929190505050610b2e565b604051808481526020018060200180602001838103835285818151815260200191508051906020019080838360005b838110156104dc5780820151818401526020810190506104c1565b50505050905090810190601f1680156105095780820380516001836020036101000a031916815260200191505b50838103825284818151815260200191508051906020019080838360005b83811015610542578082015181840152602081019050610527565b50505050905090810190601f16801561056f5780820380516001836020036101000a031916815260200191505b509550505050505060405180910390f35b6000809054906101000a900473ffffffffffffffffffffffffffffffffffffffff1673ffffffffffffffffffffffffffffffffffffffff163373ffffffffffffffffffffffffffffffffffffffff1614151561066a576040517f08c379a00000000000000000000000000000000000000000000000000000000081526004018080602001828103825260238152602001807f4f6e6c792074686520617574686f72697365722063616e20757064617465206481526020017f617461000000000000000000000000000000000000000000000000000000000081525060400191505060405180910390fd5b600060018481548110151561067b57fe5b906000526020600020906003020160010180546001816001161561010002031660029004905014151515610717576040517f08c379a00000000000000000000000000000000000000000000000000000000081526004018080602001828103825260178152602001807f54686520706572736f6e2068617320746f20657869737400000000000000000081525060200191505060405180910390fd5b8160018481548110151561072757fe5b9060005260206000209060030201600101908051906020019061074b929190610c97565b508060018481548110151561075c57fe5b90600052602060002090600302016002019080519060200190610780929190610c97565b50505050565b606080600060018481548110151561079a57fe5b906000526020600020906003020160010180546001816001161561010002031660029004905014151515610836576040517f08c379a00000000000000000000000000000000000000000000000000000000081526004018080602001828103825260178152602001807f54686520706572736f6e2068617320746f20657869737400000000000000000081525060200191505060405180910390fd5b60018381548110151561084557fe5b906000526020600020906003020160010160018481548110151561086557fe5b9060005260206000209060030201600201818054600181600116156101000203166002900480601f01602080910402602001604051908101604052809291908181526020018280546001816001161561010002031660029004801561090b5780601f106108e05761010080835404028352916020019161090b565b820191906000526020600020905b8154815290600101906020018083116108ee57829003601f168201915b50505050509150808054600181600116156101000203166002900480601f0160208091040260200160405190810160405280929190818152602001828054600181600116156101000203166002900480156109a75780601f1061097c576101008083540402835291602001916109a7565b820191906000526020600020905b81548152906001019060200180831161098a57829003601f168201915b5050505050905091509150915091565b6000809054906101000a900473ffffffffffffffffffffffffffffffffffffffff1673ffffffffffffffffffffffffffffffffffffffff163373ffffffffffffffffffffffffffffffffffffffff16141515610a7b576040517f08c379a00000000000000000000000000000000000000000000000000000000081526004018080602001828103825260208152602001807f4f6e6c792074686520617574686f72697365722063616e20616464206461746181525060200191505060405180910390fd5b6000600180549050905060016060604051908101604052808681526020018581526020018481525090806001815401808255809150509060018203906000526020600020906003020160009091929091909150600082015181600001556020820151816001019080519060200190610af4929190610d17565b506040820151816002019080519060200190610b11929190610d17565b5050505060018101600180549050141515610b2857fe5b50505050565b600181815481101515610b3d57fe5b9060005260206000209060030201600091509050806000015490806001018054600181600116156101000203166002900480601f016020809104026020016040519081016040528092919081815260200182805460018160011615610100020316600290048015610bef5780601f10610bc457610100808354040283529160200191610bef565b820191906000526020600020905b815481529060010190602001808311610bd257829003601f168201915b505050505090806002018054600181600116156101000203166002900480601f016020809104026020016040519081016040528092919081815260200182805460018160011615610100020316600290048015610c8d5780601f10610c6257610100808354040283529160200191610c8d565b820191906000526020600020905b815481529060010190602001808311610c7057829003601f168201915b5050505050905083565b828054600181600116156101000203166002900490600052602060002090601f016020900481019282601f10610cd857805160ff1916838001178555610d06565b82800160010185558215610d06579182015b82811115610d05578251825591602001919060010190610cea565b5b509050610d139190610d97565b5090565b828054600181600116156101000203166002900490600052602060002090601f016020900481019282601f10610d5857805160ff1916838001178555610d86565b82800160010185558215610d86579182015b82811115610d85578251825591602001919060010190610d6a565b5b509050610d939190610d97565b5090565b610db991905b80821115610db5576000816000905550600101610d9d565b5090565b9056fea165627a7a72305820ae125e9c8bfb766179da7148bc77fcd04c49d17e301894f7315602b332f50c140029",
  "source": "pragma solidity ^0.5.0;\n\ncontract NID{\n\n  address private authoriser;\n\n  struct person{\n    uint id;\n    string name;\n    string addr;\n    // string pict;\n    // string fingerprint;\n    // string retinascan;\n  }\n\n  constructor() public{\n    // the genesis block is the only one that can modify data\n    authoriser = msg.sender;\n  }\n\n  person[] public data;\n\n  function createPerson(uint _id, string memory _name, string memory _addr) public{\n    require(msg.sender == authoriser, \"Only the authoriser can add data\");\n    uint totalCount = data.length;\n    data.push(person(_id, _name, _addr));\n    assert(data.length == totalCount + 1);\n  }\n\n  function updatePerson(uint _id, string memory _name, string memory _addr) public{\n    require(msg.sender == authoriser, \"Only the authoriser can update data\");\n    require(bytes(data[_id].name).length != 0, \"The person has to exist\");\n    data[_id].name = _name;\n    data[_id].addr = _addr;\n  }\n\n  function viewPerson(uint _id) view public returns(string memory, string memory){\n    require(bytes(data[_id].name).length != 0, \"The person has to exist\");\n    return (data[_id].name, data[_id].addr);\n  }\n}\n",
  "sourcePath": "/home/urmi/Codes/Blockchain/nid/contracts/NID.sol",
  "compiler": {
    "name": "solc",
    "version": "0.5.0+commit.1d4f565a.Emscripten.clang"
  },
  "schemaVersion": "3.0.2",
  "updatedAt": "2019-04-07T03:00:31.156Z",
  "devdoc": {
    "methods": {}
  },
  "userdoc": {
    "methods": {}
  }
}